:1000000012C026C135C11FC01EC01DC01CC01BC0F0
:100010001AC019C018C017C016C015C014C013C02C
:1000200012C011C010C011241FBECFE5D4E0DEBF46
:10003000CDBF20E0A0E6B0E001C01D92A236B2071D
:10004000E1F702D087C2DCCF789421B381B3EE24EC
:10005000E39403E041E062E073D287B2C1B207B338
:1000600047B381B394E09F930F2EF3E0AF2EF02DB2
:100070000F2EF3E0EF2EF02D22E062E02BD244B3FE
:1000800034B3C7B227B387B391E09F931F924F93C6
:100090009F9397E09F933F93882483940F2EF6E0DD
:1000A000AF2EF02DEE24E39405E041E060E019D29C
:1000B00081E01ED287B366E0FAD084B367E0F6D061
:1000C00004B347B387B30F2EF7E0EF2EF02D26E0F1
:1000D00062E0E7D18DB79EB707960FB6F8949EBF42
:1000E0000FBE8DBF14E00F2EF3E0FF2EF02DD4E6EF
:1000F0000F2EF5E0DF2EF02D80916000813071F53C
:1001000087B2C7B204B344B387B31F930F2EF6E090
:10011000AF2EF02D0F2EF7E0EF2EF02D20E060E057
:10012000FFD031B327B397B387B2C7B204B344B398
:1001300087B3FF923F93FF922F93DF93DF929F93BA
:100140001F9320E060E058D1109260008DB79EB7F9
:1001500009960FB6F8949EBF0FBE8DBF80916100C7
:100160008130B1F491B387B2A7B2C7B204B344B33C
:1001700087B3FF929F931F930F2EF7E0EF2EF02D82
:1001800020E060E00DD1109261000F900F900F9071
:10019000809160008111B0CF809161008111ACCF5E
:1001A00087B362E085D0811123C031B327B397B301
:1001B00087B2C7B204B344B387B3FF923F93FF92B1
:1001C0002F93DF93DF929F931F930F2EF6E0AF2EB6
:1001D000F02D0F2EF7E0EF2EF02D20E060E00CD197
:1001E0008DB79EB708960FB6F8949EBF0FBE8DBF11
:1001F00081E04ED08B30924020F17ECF87B34D2FDF
:1002000060E0E6D0CF5F8FEF9FE121E0815090402A
:100210002040E1F700C00000C230A0F087B2C7B2B2
:1002200004B344B387B31F930F2EF6E0AF2EF02D27
:100230000F2EF7E0EF2EF02D20E060E071D00F9050
:1002400001C0C0E081E024D08C309240B8F654CF99
:100250001F920F920FB60F9211248F93B89881E0DE
:10026000809360008F910F900FBE0F901F90189594
:100270001F920F920FB60F9211248F93B89881E0BE
:10028000809361008F910F900FBE0F901F90189573
:100290002FD1369A349BFECF24B135B1932F80E015
:1002A000AC01422B9A01822F932F0895089508954F
:1002B00090E002C0959587956A95E2F721E0822744
:1002C00081700895CF93DF93C42FD22FF0DF6D2F6D
:1002D0008C2FECDFDF91CF910895AF92CF92EF9208
:1002E0000F93CF93DF93C42FD22FE1DF2A2D4C2D14
:1002F0006E2D802FE7DF6D2F8C2FD8DFDF91CF9110
:100300000F91EF90CF90AF900895CF93DF93C42FCC
:10031000D22FCCDF6D2F8C2FCADFDF91CF910895C4
:100320004F925F926F927F928F929F92AF92BF9205
:10033000CF92DF92EF92FF920F931F93CF93DF93B1
:10034000CDB7DEB7482E562E642E722E102FFE2CFF
:10035000DC2CBA2C9B8809C0AB2CCD2CEF2C012FA8
:10036000272D462D652D842DB8DF692D882DA0DF22
:10037000813091F32B2D4D2D6F2D812FC6DFDF9115
:10038000CF911F910F91FF90EF90DF90CF90BF9092
:10039000AF909F908F907F906F905F904F90089557
:1003A0008F92AF92CF92EF920F93CF93DF93CDB70F
:1003B000DEB79C85913021F49A859F93B1DF0F9031
:1003C000DF91CF910F91EF90CF90AF908F900895E4
:1003D000CF93DF93C82FD62F69DF2FEF8FE191E006
:1003E000215080409040E1F700C000006D2F8C2F1D
:1003F0005EDFDF91CF9108953F924F925F926F92AF
:100400007F928F929F92AF92BF92CF92DF92EF92A4
:10041000FF920F931F93CF93DF93CDB7DEB7982E44
:10042000762E642E522E102FFE2CDC2CBA2C3C88FB
:100430002A2D4C2D6E2D802F45DF4F896E898D8999
:10044000C7DF8B8D8F938A8D8F933F92252D462DFD
:10045000672D892DA5DF698D888D2ADF0F900F907C
:100460000F90811107C03F92252D462D672D892DB4
:1004700057DF0F902B2D4D2D6F2D812F46DFDF91F4
:10048000CF911F910F91FF90EF90DF90CF90BF9091
:10049000AF909F908F907F906F905F904F903F9024
:1004A0000895EF920F93CF93DF93C42FD22F00DFE5
:1004B000813031F42E2D402F6D2F8C2F26DF05C07B
:1004C0002E2D402F6D2F8C2FFDDEDF91CF910F91C0
:1004D000EF900895CF93DF93CDB7DEB7DF91CF9143
:1004E0000895CF93DF93CDB7DEB7DF91CF91089515
:1004F000379A97B1906C97B996B1956096B982305A
:1005000089F028F4882349F08130B9F409C0843097
:1005100079F050F0853089F40DC087B187B90DC0EE
:10052000389A0BC0399A09C087B1836087B905C072
:100530003A9A03C087B1856087B9359A369A08958B
:100540008BB780648BBF8BB780688BBF85B78260A9
:0805500085BF0895F894FFCF68
:00000001FF
